:020000021000EC
:10F0000000000120F9990200219A0200239A0200CF
:10F01000259A0200279A0200299A020000000000A7
:10F020000000000000000000000000002B9A020019
:10F030002D9A0200000000002F9A0200319A02006F
:10F04000D5240200339A020085320200339A02006E
:10F05000339A0200339A020011290200339A020007
:10F06000339A0200339A0200339A0200339A020064
:10F07000339A0200339A0200339A0200339A020054
:10F08000339A0200E1FE0100339A0200339A020033
:10F0900081FF0100339A02001D9F0200339A020093
:10F0A000339A0200339A0200339A0200339A020024
:10F0B000339A0200339A02000000000000000000B2
:10F0C000339A0200339A0200339A0200339A020004
:10F0D000339A0200339A0200339A020000000000C3
:10F0E0000000000000000000000000000000000020
:10F0F0000000000000000000000000000000000010
:10F1000000000000000000000000000000000000FF
:10F1100000000000000000000000000000000000EF
:10F1200000000000000000000000000000000000DF
:10F1300000000000000000000000000000000000CF
:10F1400000000000000000000000000000000000BF
:10F1500000000000000000000000000000000000AF
:10F16000000000000000000000000000000000009F
:10F17000000000000000000000000000000000008F
:10F18000000000000000000000000000000000007F
:10F19000000000000000000000000000000000006F
:10F1A000000000000000000000000000000000005F
:10F1B000000000000000000000000000000000004F
:10F1C000000000000000000000000000000000003F
:10F1D000000000000000000000000000000000002F
:10F1E000000000000000000000000000000000001F
:10F1F000000000000000000000000000000000000F
:10F2000010B5054C237833B9044B13B10448AFF360
:10F2100000800123237010BDC821002000000000E1
:10F220000CB202000C4B43B10C480D4910B5AFF3C2
:10F2300000800C48036823B910BD0A48036833B93D
:10F240007047094B002BF7D0BDE810401847064B1C
:10F25000002BF5D0184700BF000000000CB20200E0
:10F26000CC210020B421002000000000154B002B11
:10F2700008BF134B9D46A3F5803A00218B460F46ED
:10F280001348144A121A00F063F80F4B002B00D0F9
:10F2900098470E4B002B00D0984700200021040017
:10F2A0000D000D48002802D00C48AFF3008000F09C
:10F2B0002BF82000290004F047FF00F011F800BFF0
:10F2C0000000080000000120000000000000000015
:10F2D000C82100208C320020000000000000000047
:10F2E00008B5074B044613B10021AFF30080054B6E
:10F2F0001868836A03B19847204600F031F800BFD0
:10F300000000000094AC020070B50D4E0D4CA41B23
:10F31000A4100025A54209D10B4E0C4C0BF0AEFCFD
:10F32000A41BA4100025A54205D170BD56F82530B8
:10F3300098470135EEE756F8253098470135F2E752
:10F34000AC210020AC210020AC210020B021002005
:10F3500002440346934200D1704703F8011BF9E7CA
:10F36000FEE700BF0378012B04BF014A137070470A
:10F37000E62100202DE9F04FC7B01C469148002936
:10F3800014BF0A23002316460D46009303F06EFFB8
:10F39000002840F0E380002C00F0E48006AB8346B8
:10F3A0000293519B539A9E18202501960099029A28
:10F3B0000B465B4404933133D318039302EB0B07E2
:10F3C00000295DD07B4203F003038B4228BF0B462C
:10F3D000062900F2EB800A463946012A01F8015B52
:10F3E00000F0E280022A7D7007F1020100F0DC806B
:10F3F000032ABD7007F1030100F0D680042AFD70D6
:10F4000007F1040100F0D080062A3D7107F10501E3
:10F4100040F0D2807D71B91D1346009890422DD0E6
:10F42000009EA6EB020CACF1040006F1FF3A800846
:10F43000AAEB020A0130BAF1020F4FEA800E13D98B
:10F440005A44029E4FF0203A012806EB020B46F880
:10F4500002A005D00228CBF804A001D0CBF808A068
:10F46000E6457144734409D0009E0D705A1CB242A7
:10F4700004D202339E424D7000D98D70009B1F4410
:10F48000039B059707F1330907F1030A264603F1A9
:10F4900001084C46019FDDF844910DE00AF8035C39
:10F4A0000AF8025C0AF8015C0AF1030AA24508F8AE
:10F4B000015C08F101082FD0B742EFD9B1456DD9F1
:10F4C000509B13F806B00AF8015C4FEA2B105FFA64
:10F4D00080FE09280BF00F00D4BF0EF1300E0EF1A4
:10F4E000370E092894BF303037300AF803EC0AF899
:10F4F000020C0AF0F1FE58440AF1030A407810F0B9
:10F50000970F08BF4FF02E0BA24508F801BC06F17B
:10F51000010608F10108CFD1049B03980197059FCC
:10F52000029903F1430A0D220A23027443745246DE
:10F53000254887F830500AF0FEFE5FFA8AF2224929
:10F54000204803F0E9FD3446834638B91D4803F0EE
:10F550008DFE18B9019B9C42FFF428AF204647B0AE
:10F56000BDE8F08F55B306A902912B68174A0846EB
:10F570000D464FF480710AF0E9FEB0F1000BEDDBAF
:10F580005D4430460AF016FFC2280246314628BFC5
:10F59000C222284693440AF0CEFE02E7A6EB0900F9
:10F5A000529B13F800B08EE7134636E71A463946E9
:10F5B000002B3FF435AF0FE705232EE706AD02958C
:10F5C000A346DEE724200020E8210020B8AC02009A
:10F5D000F0B56548C7B00C4616461D4603F046FE1A
:10F5E000A0B9B4B14FF480712368604A06A80AF04C
:10F5F000ADFE011E0ADB4C9B0C46062B00F2B280CE
:10F60000DFE803F012626C2E783C4E00002047B019
:10F61000F0BD4C9B062B00F2A280DFE803F00494BF
:10F620008F8A807B85004C9C30460AF0C3FE03190C
:10F63000FF2B054640F28C80002DE7DB6219B2F506
:10F64000807FE3D8D4B206A949480AF074FE224666
:10F650004749454803F060FDB0FA80F04009D6E71D
:10F6600006AB5818C1F58071AA682B686D680095C3
:10F67000019232460AF06AFE0546DDE706AB5818ED
:10F68000C1F580712F69EA682B680397AF686D68D0
:10F6900002928DE8A00032460AF058FE0546CBE7FC
:10F6A00006AB5818C1F580716A692F692B680492FE
:10F6B000EA680397AF686D6802928DE8A000324651
:10F6C0000AF044FE0546B7E706AB5818C1F580714D
:10F6D0002B6832460AF03AFE0546ADE706AB5818ED
:10F6E000C1F580716A682B68009232460AF02EFEDE
:10F6F0000546A1E706AB5818C1F58071EA682B688A
:10F70000AF686D6802928DE8A00032460AF01EFED6
:10F71000054691E74FF4807106A80024B2E74FF444
:10F72000807106A80024E9E74FF4807106A8002440
:10F73000BAE74FF4807106A8002495E74FF4807172
:10F7400006A80024CEE74FF4807106A80024BFE786
:10F7500006AB314618192A460AF0EDFD6CE7002485
:10F76000224670E7002569E724200020B8AC02009B
:10F77000E8210020F0B5174F3B7889B01BB1164B3C
:10F780001B78834222D0154D06460FCD6C460FC420
:10F7900095E80F00062584E80F00082105220723BD
:10F7A0000F48019103920095029303F031FC002E63
:10F7B0000C4A0B4818BF0022694603F03DFB18B9FC
:10F7C000054A012316703B7009B0F0BD002009B056
:10F7D000F0BD00BFE5210020E421002098AC02002C
:10F7E0002420002065F3010000487047D1F5010096
:10F7F0000048704775F3010038B50020FFF7BAFFE5
:10F80000044668B9FFF7F0FF0546FFF7F1FF054B27
:10F81000FF22C3F810541C605C60C3F814049A60A3
:10F82000204638BDE82200200120FFF7A3BF00BF1B
:10F830002DE9F04383B002AB4FF0000803F8018DCF
:10F84000254C074618460E46A56801F029F8A2681F
:10F850006368D4F8009013440133A3EB0903012B30
:10F8600007D80BBB9DF8070001F040F803B0BDE8D6
:10F87000F08309F101039DF80700236001F036F8D9
:10F880000122002362F3010368F3820305EA0905FC
:10F8900067F3C50304EB850468F3891366F39F23BC
:10F8A000E36003B0BDE8F0830121434661F3010347
:10F8B00068F38203052161F3C50309EA02020749DF
:10F8C00004EB820268F3891309F1010561F39F23B8
:10F8D0002560D360C6E700BFE8220020C0AC02006C
:10F8E0002DE9F04782B002AB002503F8015D294CF9
:10F8F0008146184617468846A66800F0D1FFA268E0
:10F900006368D4F800A013440133A3EB0A03022B6D
:10F9100007D843BB9DF8070000F0E8FF02B0BDE840
:10F92000F0870AF102039DF80700236000F0DEFF74
:10F930000121002361F301030AEB010265F3820355
:10F9400069F3C50306EA0A0A164004EB8A0A61F362
:10F95000891304EB860468F39F23CAF80C30E76030
:10F9600002B0BDE8F08701212B4661F3010365F386
:10F970008203052161F3C5030AEA0202064804EB8B
:10F98000820265F389130AF1010160F39F2321606C
:10F99000D360BFE7E8220020C0AC02002DE9F04FA1
:10F9A00083B002AE002506F8015D2D4C824630463C
:10F9B00090461F468946A66800F072FFA2686368F9
:10F9C000D4F800B013440133A3EB0B03032B07D887
:10F9D0007BBB9DF8070000F089FF03B0BDE8F08F06
:10F9E0000BF103039DF80700236000F07FFF012265
:10F9F000002362F301030BF1020165F382035A4411
:10FA00006AF3C503022006EA0B0B32400E4004EBFA
:10FA10008B0B04EB820260F3891304EB860469F319
:10FA20009F23CBF80C30C2F80C80E76003B0BDE830
:10FA3000F08F01212B4661F3010365F38203052159
:10FA400061F3C5030BEA0202064804EB820265F388
:10FA500089130BF1010160F39F232160D360B8E7A4
:10FA6000E8220020C0AC02002DE9F04F83B002AFC5
:10FA7000002607F8016D314C8246384690461F46F5
:10FA8000A568894600F00CFFA2686368D4F800B04E
:10FA900013440133A3EB0B03042B07D8BBBB9DF826
:10FAA000070000F023FF03B0BDE8F08F0BF1040363
:10FAB0009DF80700236000F019FF0122002362F384
:10FAC000010366F382030BEB02010BF103000BF160
:10FAD00002026AF3C503032605EA0B0B04EB8B0B4A
:10FAE00066F3891369F39F2329402A400540CBF828
:10FAF0000C3004EB810104EB82020C9BC1F80C80FA
:10FB000004EB8504D760E36003B0BDE8F08F01210A
:10FB1000334661F3010366F38203052161F3C503F4
:10FB20000BEA0202064804EB820266F389130BF12A
:10FB3000010160F39F232160D360B0E7E822002039
:10FB4000C0AC02002DE9F0434F4E716832688A4222
:10FB50008BB078D0B76807EA0105023506EB85025D
:10FB60000131546814F003030ED1C4F3891303EB7D
:10FB700094530B4407EA0305023506EB8502591C32
:10FB8000546814F00303F0D0022B2CD0C4F3831379
:10FB9000C4F39522002B73D00DF1100C604601EBDD
:10FBA000030E07EA010506EB850501F10108F045A2
:10FBB000E96840F8041B4146F3D10093C4F3C20046
:10FBC0006346D6F810440021A04748B1C6F8048027
:10FBD0003068B0EB080018BF01200BB0BDE8F0831F
:10FBE000D6F80480F4E701F1010827EA080001EAE9
:10FBF0000703013006EB830380004FEA94598145E7
:10FC0000DA68C4F3891322D988B307EA0801C7B2B6
:10FC10000331A9EB0700DFF874E006EB8101C0B205
:10FC20008DE882400390D6F814740021C4F3C2001A
:10FC3000B847484520D006EB850560F38F146C600B
:10FC4000D6F80480C4E700200BB0BDE8F08307EAD3
:10FC50000800033006EB800000218DE801020391CB
:10FC60000291D6F81474C4F3C200B847E1E786469F
:10FC70005FFA89F70549D3E7033008EB9008A5E759
:10FC800088460DF1100C98E7E8220020F4220020AD
:10FC90002DE9F84F254B93F800E0BEF1000F31D06D
:10FCA000DFF88CB0DFF88CA0DFF88C9000240127FF
:10FCB00003E00134E4B2744524D226B2DBF80050EC
:10FCC000DAF8003015F8360007FA00F1194205EBB2
:10FCD000C608EED023EA0103CAF8003002F00EFE97
:10FCE00015F83660D9F8003007FA06F52B4000FA0F
:10FCF00006F18B4208D00D4B013493F800E0E4B2DA
:10FD00007445DAD3BDE8F88FD8F80430002BF2D070
:10FD100098F80110A1F10101B1FA81F14909091A1C
:10FD2000B1FA81F1490930469847E4E700270020FD
:10FD3000302700202C2700202827002070B50646F9
:10FD4000114800F071FD40B9104D01242B68B440FA
:10FD50001C4203D023EA04042C6070BD304602F03C
:10FD6000CDFD0B4E326860B122432B6809493260E9
:10FD70001C432C60044809680022BDE8704000F074
:10FD8000FDBC22EA0402F0E7082700202C2700200F
:10FD90002827002004270020042A01D807207047C4
:10FDA0002DE9F04182B088460546174602F07AFCFC
:10FDB000002836D01D4C1E481E491F4A1F4B256087
:10FDC000002608F1FF3480F800800F6016601E6086
:10FDD000E4B2B8F1000F1ED0DFF86C80032701E019
:10FDE000FF2C18D023B205EBC30215F8330093782B
:10FDF0008DF80470424601A98DF806608DF8076001
:10FE00008DF8053002F058FC013CE4B20028E7D040
:10FE100002B0BDE8F0810A4A0A48002100F09CFCCB
:10FE2000F6E702F0FDFB0028C4D0F1E73027002000
:10FE30000027002004270020282700202C2700204E
:10FE400091FC0100CCAC02003DFD010070B5084DF5
:10FE50002B785BB1074E00243368012113F834007E
:10FE600002F0EAFC2B780134A342F5D8002070BDE3
:10FE7000002700203027002000B585B00023039024
:10FE8000194601AA44F20100ADF80430029300F0D3
:10FE900003F805B05DF804FB08B50D490120FFF734
:10FEA000C7FCFFF7C1FCFFF74DFE0028FBD1094955
:10FEB0000320FFF7BDFCBFF34F8F0749074BCA680C
:10FEC00002F4E0621343CB60BFF34F8F00BFFDE746
:10FED000D0AC0200E0AC020000ED00E00400FA0546
:10FEE000F8B5204A204B0025C2F84051C2F84451D1
:10FEF000C2F84851C2F84C51C2F80051C2F804513E
:10FF00001B6813B31949D2F804450A68A41A1A6881
:10FF100024F07F44A2422F4609D8197CDE69A41A36
:10FF2000154499B91EB133461A68A242F5D9104951
:10FF3000104A0B7812789A420DD00F490F4A41F8B7
:10FF400023504FF48013C2F80031F8BD1F745A6972
:10FF500098699047E6E7531CDBB2022B08BF0023E9
:10FF60000B70EAE7001001405428002050280020C0
:10FF70004D2800204C2800204428002000E100E00B
:10FF80002DE9F04F7D4A7E491378097899428BB06C
:10FF90003BD00133DBB27B490491022B0D687A49D7
:10FFA000069108BF00231370784A084652F82310C0
:10FFB000D0F80090049A6B18002423F07F434E463B
:10FFC000AC461360204627462546AEB133688B42C7
:10FFD00000F2ED81F4683760C91A1844F3693CB146
:10FFE0000CEB000E2EF07F42F561B4607260354676
:10FFF0001E460124002EE9D12A46B146002C40F0CD
:020000022000DC
:10000000DB8201230793069B07E05F4B5D4A049266
:10001000D3F80090069300220792D3F800A05C4B1F
:10002000DFF874C11B780593049B186800234946C8
:10003000CE460893D146099303934FF0010B174620
:100040009A46804637B37C68BD683B46FF69514895
:10005000A4EB080222F07F42824258D815441D606A
:10006000002283F810B05A609A60DA6100296ED0DD
:100070000868854263D90C4603E01068A8424FD255
:100080001446E2692D1A002AF7D11D60DA61E36196
:10009000002FD8D10297CDF804E09CF801709CF8AD
:1000A00000200025974200F08680104600EB4000BB
:1000B0000CEBC000541C9CF80230E2B204798CF8BE
:1000C0000020934204BF8CF800500022022C836869
:1000D0004ED0032C40D0012CE4D11E7C002EE1D167
:1000E000C4685C6005699D604269DA6082699A61F2
:1000F000059A029FDDF804E0002AA8D03446A4EB5C
:10010000080224485E6022F07F428242A6D9A8EB12
:10011000040424F07F44AC4208D22D1B1D609FE7ED
:10012000401B10601D60DA61E361B1E7002583F8D0
:1001300010B01D605D609D60DD6141B10868451BC8
:100140000D609946D9614FF0010A19467AE7994640
:1001500019464FF0010A75E70029A3D00022CB69A8
:100160000A741946002BFAD199464FF0010A94E718
:10017000D9B19942084615D110E100BF4C280020A2
:100180004D2800205028002054280020442800201A
:1001900040280020FEFF7F0034270020A34200F00B
:1001A000E8802046C469002CF8D10E4697421D74A1
:1001B00031467FF47AAF4046D046CA46DDF8049017
:1001C000B8F1000F40F0F481099B002B40F0ED8165
:1001D000089B1BB17B4B9DF814201A70039B13B92D
:1001E000494500F04C81002900F04E81764C049B7B
:1001F000D4F804051B68754D0F682978C21A22F0DF
:100200007F420332002951D17149DFF8C8C1DFF8BC
:10021000C8E14FF48036C4F84463C4F804634FF473
:100220000036C1F880610E60012626602F21DCF8BF
:10023000004000BF00BF00BF00BF00BF00BF00BF45
:1002400000BF74452FD000BF00BF00BF00BF00BF7C
:1002500000BF00BF00BF00BF00BF00BF00BF00BFA6
:1002600000BF00BF00BF00BF00BF00BF00BF00BF96
:1002700000BF00BF00BF00BF00BF00BF00BF00BF86
:1002800000BF00BF00BF00BF00BF00BF00BF00BF76
:1002900000BF00BF00BF00BF00BF00BF00BF00BF66
:1002A00000BF00BF00BF0139C3D12E7097422CBFE1
:1002B000DB199B18444923F07F43C1F84035D1F83E
:1002C0000425121A1B1A22F07F4223F07F430332C7
:1002D0009A4248D9D1F804353E4AC1F840351268EF
:1002E0003D492F2300BF00BF00BF00BF00BF00BFBC
:1002F00000BF00BF8A422FD000BF00BF00BF00BFB9
:1003000000BF00BF00BF00BF00BF00BF00BF00BFF5
:1003100000BF00BF00BF00BF00BF00BF00BF00BFE5
:1003200000BF00BF00BF00BF00BF00BF00BF00BFD5
:1003300000BF00BF00BF00BF00BF00BF00BF00BFC5
:1003400000BF00BF00BF00BF00BF00BF00BF00BFB5
:1003500000BF00BF00BF00BF013BC3D11C4B4FF427
:100360000032C3F80021174A002313700BB0BDE818
:10037000F08F834212D00E46DC69D3F800E0C461EE
:1003800034B12268724422609CF800209CF801700D
:100390000398B14218BF0120039007E7D1F81C90E1
:1003A000B9F1000F1AD04E464FF0010AE4E72A4691
:1003B000B146002C60D15B1AC9F8003001230793C5
:1003C000069B2AE64028002000100140412800201A
:1003D00000E100E03C2000200024F400784E794C3D
:1003E000C6F808B0784E4FF02F0E366800BF00BF39
:1003F00000BF00BF00BF00BF00BF00BFA6422FD09C
:1004000000BF00BF00BF00BF00BF00BF00BF00BFF4
:1004100000BF00BF00BF00BF00BF00BF00BF00BFE4
:1004200000BF00BF00BF00BF00BF00BF00BF00BFD4
:1004300000BF00BF00BF00BF00BF00BF00BF00BFC4
:1004400000BF00BF00BF00BF00BF00BF00BF00BFB4
:1004500000BF00BF00BF00BF00BF00BF00BF00BFA4
:10046000BEF1010EC2D1012634460896C8464E465A
:1004700005940994A2467FE7069806609BE7079BD0
:10048000002B3FF470AFAEE64D4A504B4E4E4D4CF4
:100490004FF480304FF400370125C3F88070C2F864
:1004A00048032F23C2F80803556030681E4600BF7A
:1004B00000BF00BF00BF00BF00BF00BF00BFA04221
:1004C0002FD000BF00BF00BF00BF00BF00BF00BFF4
:1004D00000BF00BF00BF00BF00BF00BF00BF00BF24
:1004E00000BF00BF00BF00BF00BF00BF00BF00BF14
:1004F00000BF00BF00BF00BF00BF00BF00BF00BF04
:1005000000BF00BF00BF00BF00BF00BF00BF00BFF3
:1005100000BF00BF00BF00BF00BF00BF00BF00BFE3
:1005200000BF013EC3D19560049A116000BF00BFB7
:1005300000BF00BF00BF00BF00BF00BFA0422FD060
:1005400000BF00BF00BF00BF00BF00BF00BF00BFB3
:1005500000BF00BF00BF00BF00BF00BF00BF00BFA3
:1005600000BF00BF00BF00BF00BF00BF00BF00BF93
:1005700000BF00BF00BF00BF00BF00BF00BF00BF83
:1005800000BF00BF00BF00BF00BF00BF00BF00BF73
:1005900000BF00BF00BF00BF00BF00BF00BF00BF63
:1005A000013BC3D10A4B1970DDE6049B18600FE6CE
:1005B000069BC3F800A007E6069B1E6021E500BF6E
:1005C000001001400024F4003C20002000E100E085
:1005D00041280020F0B4564B564A574E574C4FF422
:1005E00080304FF400310125C2F88010C3F8480371
:1005F0002F21C3F808035D6030680E4600BF00BFBE
:1006000000BF00BF00BF00BF00BF00BFA0422FD08F
:1006100000BF00BF00BF00BF00BF00BF00BF00BFE2
:1006200000BF00BF00BF00BF00BF00BF00BF00BFD2
:1006300000BF00BF00BF00BF00BF00BF00BF00BFC2
:1006400000BF00BF00BF00BF00BF00BF00BF00BFB2
:1006500000BF00BF00BF00BF00BF00BF00BF00BFA2
:1006600000BF00BF00BF00BF00BF00BF00BF00BF92
:10067000013EC3D19D6000BF00BF00BF00BF00BFEF
:1006800000BF00BF00BFA0422FD000BF00BF00BF0F
:1006900000BF00BF00BF00BF00BF00BF00BF00BF62
:1006A00000BF00BF00BF00BF00BF00BF00BF00BF52
:1006B00000BF00BF00BF00BF00BF00BF00BF00BF42
:1006C00000BF00BF00BF00BF00BF00BF00BF00BF32
:1006D00000BF00BF00BF00BF00BF00BF00BF00BF22
:1006E00000BF00BF00BF00BF00BF0139C3D1144E1F
:1006F000144D154C1549164F00203070286020709D
:100700004FF48015E0240B26087048708E70387006
:100710001049C2F8805182F814431560C3F80805E7
:1007200082F81143D3F804350B60F0BC704700BF6A
:100730000010014000E100E03C2000200024F40013
:1007400041280020542800204C2800203427002075
:100750004D28002050280020074B9B780BB908201B
:1007600070473AB130B10368187C0028F7D159744A
:100770005A61704707207047342700202DE9F04365
:10078000264CA37883B01BB9082003B0BDE8F083E2
:100790000028F9D0042903D8072003B0BDE8F0836E
:1007A0004369002BF0D0064602A8737C0025012B7C
:1007B00000F8015D0CBF8946A94690460F4600F03F
:1007C0006FF86378A07821785A1CD2B2904208BFA3
:1007D0002A4691421BD003EB430304EBC3030120E1
:1007E0000F4918719E60D1F804159DF80700D96073
:1007F0001F61C3F81490C3F81880627000F076F897
:10080000084B4FF480122846C3F80021BDE79DF83D
:10081000070000F06BF80420B7E700BF3427002082
:100820000010014000E100E070B51B4CA37882B0DD
:1008300013B9082002B070BD0028FAD04369002B1C
:10084000F7D0064602A8002500F8015D357400F0D7
:1008500027F86278A0782178531CDBB2984208BF51
:100860002B46994212D002EB420204EBC202022153
:100870009DF8070096601171637000F037F8074B20
:100880004FF480122846C3F80021D3E79DF80700F3
:1008900000F02CF80420CDE73427002000E100E030
:1008A00070B4EFF3108472B60D4B9A68AAB90D4973
:1008B0000D4E01259D60D1F8805035401D60C1F876
:1008C0008060D1F884505D604FF0FF33C1F8843010
:1008D000027004B962B670BC704701230370F8E778
:1008E0007C32002000E100E0FC06FFBD094B9A6865
:1008F00072B168B910B4EFF3108272B606491C6881
:100900000C605C684C60986002B962B65DF8044B9C
:10091000704700BF7C32002000E100E0F0B52B4CB6
:100920002B4F6268668883B0002A48D0360153880E
:10093000B9190333496802EB830201F58050824202
:1009400025D21368013318BF4FF6FF751FD0938867
:10095000AB4213D013888BB162601E4853888688DF
:1009600001681D480025033300959BB201EB860109
:100970000325257001F04EFA03B0F0BD5388033310
:1009800002EB8302824202D213680133DFD13E447C
:10099000B38963B10F4D104829680227052600234B
:1009A0000122AF80267001F08BFA03B0F0BD012266
:1009B000094801F085FA0423237003B0F0BD360125
:1009C000BB19596801F10802B7E700BFD028002021
:1009D0005C2900207C290020B8210020F0B5436864
:1009E0008E464BB1324A1468A34205D352689342F3
:1009F00002D813F003023AD000232E4EAEF8003096
:100A00004FF0010C4FF6FF757768002307F580540F
:100A100053B35A88033203EB82039C4217D91A68F6
:100A2000013214D09A88AA420BD01A884AB10268BF
:100A300099689142ECD1204A4360138903810120D7
:100A4000F0BD5A88033203EB8203A342E7D30CF1D3
:100A50000103AEF800C01FFA83FCBCF1030F06F1DE
:100A60001006D1D10020F0BD07F10803D5E7124CE4
:100A700005892489A542BFD105689C68A542BBD1E0
:100A80000C4C6068834205D900F58050834201D246
:100A9000134608E062699342E4D902F5805293421A
:100AA00038BF0123DED2AEF800300120F0BD00BF18
:100AB000B82100205C290020D0280020B3F804C011
:100AC000BCF1010F53D82DE9F0419046294A4FF669
:100AD000FF7702EB0C1E00229EF80040002C33D161
:100AE0001C68002C3ED06588DEF80460033504EBFA
:100AF000850406F58056B44225D22568013522D0FA
:100B0000A588BD4219D02588BDB11C6018B1A68842
:100B10000588AE42E5D119B126880D88AE42E0D1F4
:100B2000A268C8F800201A68134BC8F804201B8973
:100B3000A8F808300020BDE8F0816588033504EB93
:100B40008504B442D9D31A600CF1010C1FFA8CFC55
:100B5000BCF1020FA3F804C00EF1100EBCD10A20A4
:100B6000BDE8F081DEF8046006F10804C1E70A2060
:100B7000704700BF5C290020D02800202DE9F04FED
:100B8000A94C256FEF007E1BB6008BB0A25D013A29
:100B9000824604EB0609052A31D8DFE802F05D3E03
:100BA0003E1D1D03002840F0D680DFF8908298F8A3
:100BB0000C30002B00F0128398F8003088F80C00FD
:100BC000013B062B1BD8DFE813F00701C302CE015F
:100BD000AF011A00F502E502002840F0BC80A7EB47
:100BE000050B04EB8B0B9BF80480B8F1010F00F0B0
:100BF0005083C0F03983B8F1020F00F012810F2347
:100C0000A15D06938B1E012B40F2AC80052A34D8DF
:100C1000DFE802F030816A5E94907B1B04EB830373
:100C2000DFF814B2B3F812800BEB0818002840F07C
:100C3000AA80B8F808A0D8F804101B7C01EB8A0A37
:100C4000062B00F29A83DFE813F0A601E901D20136
:100C50003602200206020302002840F08D8099F837
:100C60000430032B00F20581DFE813F03E014B0155
:100C70002E010A0100238DF814306C4D05F1200679
:100C800055F8043F0BB105A89847B542F8D1206F3D
:100C9000C0EBC00004EB80001C220021FEF758FBD3
:100CA000636F3BB1226F0132013B02F003026367C5
:100CB00022673BB95E4A137823F0040313700BB02C
:100CC000BDE8F08F0020FFF759FF0BB0BDE8F08FB3
:100CD0007B1B04EB83030322D3F80610DB68089127
:100CE00007938DF81420C8E77B1B04EB83030221D4
:100CF0001A7C1E899D88D868ADF82060A2F1060391
:100D0000B3FA83F35B098DF82430ADF822500790D5
:100D10008DF81410B1E77B1B04EB830301221889C3
:100D20009988DB68ADF82000ADF8221007938DF8A4
:100D30001420A2E705238DF814309EE77B1B04EBFB
:100D400083030422DB88ADF8203000238DF81420C3
:100D5000ADF8223091E7A15D012306938B1E012B94
:100D60003FF654AF334B99F81660186C596C304409
:100D7000891B1864596449E72D490B7823F0010356
:100D80000B7001233CE7DB88B8F80AE0B8F80800EC
:100D9000C3F57F41FD31033303447144A8F80830A3
:100DA000A8F80A1001232BE7234BB8F808101A788B
:100DB0001B7CB2FA82F2B3FA83F352095B09013168
:100DC00088F80A2088F80B3000220123A8F80810C0
:100DD00088F80C2088F8003098F80A304BB1164A91
:100DE0009389002188F80A101BB9927B002A40F0F1
:100DF000A48298F80B304BB10F4B9A8B002188F8E6
:100E00000B101AB99B7F002B40F096827A1B0023AF
:100E100014F8222088F80030013AA8F80230C8F807
:100E2000043000230693F1E6E42800206028002027
:100E3000CC280020842800205C290020D028002015
:100E40004FF001084FEA08180BEB08034FF0000AB7
:100E50005968C54ACDF800A00223C44800F0DAFF63
:100E60000BF808A000283FF42AAF7B1B14F82320BE
:100E7000013ABF490B7823F001030B700E23BFE644
:100E8000DFF8F882B84AD8F80010B8484FF0000AE6
:100E90000223CDF800A000F0BDFFB64BB6495B8839
:100EA000D8F800E089F804A01B01CA1801F803A0D3
:100EB0005368B8F80410C8F800300223C2F804E000
:100EC0001181A8F80430CDE7DFF8B082A748D8F840
:100ED00000100023012200F0F3FF02220023A8F8F3
:100EE000042089F80430BDE7A44BA54A19689F483F
:100EF00000230093022300F08DFF012389F80430C2
:100F0000B0E7DFF874B29BF80030022B00F02282C9
:100F10009BF81030022B93D095490B7843F00203D5
:100F200023F001030B707CE7B8F80230924A02EB21
:100F300003129389002B00F0DB81904B8B481968DA
:100F400002229A800522002388F80020012200F066
:100F5000B7FF0346002B3FF4B2AE1C2202FB05F2A2
:100F6000A25C013A4CE68548D8F80420D0F800E0AD
:100F7000818853887D480EEB81014FF0000ECDF83B
:100F800000E003334FF0030E9BB288F800E000F05E
:100F900041FF0346DEE70023321D51462244009301
:100FA0007248012300F036FF7B1B9B00E2180221F0
:100FB000117400283FF483AEE25C0E23013A791BE2
:100FC00004EB8101B8F80AC0C988B8F808E0C1F597
:100FD0007F40FD30033160447144A8F80A00A8F84E
:100FE000081041F61D518B423FF41BAF08E6002369
:100FF00006F10C020AF10801224400935B48012328
:1010000000F008FF7B1B9B00E218917D00290CBFBC
:101010000121032111740028CED150E6002306F1EE
:1010200008020AF10401224400935048012300F011
:10103000F1FE7B1B9B00E118E25C032A0CBF052339
:1010400006230B7400283FF43AAE013A0E23B6E7AC
:1010500041F61D53B3E74B4B4B4AB3F800A0516820
:1010600042484A4A00230093012300F0D3FE00289F
:1010700040F035817D1B04EB85040BEB0A1A062238
:10108000012322748AF80E3019E6A7EB050B4FEA0C
:101090008B0B04EB0B033C489B690360394900232D
:1010A0004360FFF79BFC00287FF475AF14F80B201A
:1010B0000A23013AA4E5DFF8D8E0DEF844C0BCF129
:1010C000000F00F0F180DEF8401028485EF8312073
:1010D000A7EB050B04EB8B0B0EEBC103013101F009
:1010E0000701CEF840100CF1FF3CBBF81410CEF80D
:1010F00044C04FF0000E03930AEB81019B88CDF8AA
:1011000000E000F087FE039A9BF816309188BBF848
:101110001420013B0A44DBB2ABF814208BF81630E4
:1011200013B901238BF8103000283FF4C8AD7A1BA7
:101130000E2314F82220013A41E7104AD8F804108F
:101140009388498803330B440221938088F8001068
:10115000FFF7E4FB0346002B3FF4B1AD1C2202FB7A
:1011600005F2A25C013A3CE700AD0200B821002084
:10117000CC280020D02800205C2900207C290020D9
:1011800008AD02008629002058280020FCAC02008F
:10119000842800207A4B7B4A19687B4800230093FF
:1011A000C8F80430072388F80030022300F032FE2C
:1011B0000346CFE6B8F80230DFF8E0B11B019B44EC
:1011C00006200023DBF80410704A0093022388F8FD
:1011D00000006D4800F01EFE0346BBE698F80030A4
:1011E000072B2CD801A151F823F000BFA90D020054
:1011F0003F1202003F1202003B11020015120200D2
:1012000095110200951102000D120200012388F8C9
:101210000030E1E5B8F80230DFF880B1584A1B0130
:101220000BEB03011068D1F804C0B2F804E0486089
:101230000220C2F800C0A1F808E09080BFE7013B9F
:10124000062B3FF6DCAC01A151F823F0D90D0200CA
:1012500051110200670F0200290F0200FF0B02006C
:10126000B511020095110200DBF80C30CDF818A082
:1012700005A80DF11201CDF81CA00593FFF7AEFBF8
:1012800000283FD10A237A1B04EB8202022111714C
:1012900060E63F4B1B789B0709D4014608223D4876
:1012A000FEF756F8022359E7DCF80030FFDEDFF8DE
:1012B000E4B0B01D5B46204405AA5146FFF7FEFB93
:1012C00000284AD1CDF800A00699334A2E48BBF831
:1012D00004A0434600F09EFD40B30E233EE77B1B77
:1012E0009B00E118E25C06230B74013A0E2366E6CC
:1012F00051682548012200F0E3FD0422034688F8E6
:10130000002027E60699244A8B88ABF80630B1F80E
:1013100000E01D48CDF800A00123ABF808E0BDF8BF
:10132000128000F077FD70B10E23ACE71B4B03EB8E
:101330000A1383F80E80C2E40123A8F80230FFF7F5
:10134000EDFA034607E7154A02EB0812012153465E
:10135000917398E74FF0000874E5039051465846A2
:101360000822FDF7F5FF039B0A2B7FF4F7AE1C2341
:1013700003FB05F3E25C013A53E50F231FE600BFD0
:101380007C29002008AD0200B821002000AD020039
:10139000CC28002088290020FCAC02005C29002019
:1013A0000846FFF7EBBB00BF2DE9F04F0D894C68F5
:1013B00085B00646002D00F0AB80206810F00300D9
:1013C00005D091E054F83070BF0740F08D800130B7
:1013D0008542F7D1002A00F08B80B2F800A0528835
:1013E000644FDFF8A0813868D8F87490032B00F1BF
:1013F000010E03BF306803904FF0040B4FF0000B59
:10140000B9F1030FC7F800E05FD8DFF87CC1DCF862
:101410004400C5F10807B84257D8D8F87070029751
:101420000F884988019102990097494401F003010E
:10143000C1EBC101890008EB010708F80130FA800F
:10144000BDF800203A81039ABA6109F1010900232D
:10145000BDF80410B9804FF00302C7F80CE087F81C
:1014600010B0A7F812A0BD75BA827B81C8F874903D
:10147000DDB1DCF84020024402F007020CEBC202AE
:101480000CF1380804EBC30103C9013302F108076A
:1014900082E80300424514BF3A4662469D42F1D1BC
:1014A000DCF844302B44CCF844303EB10023324ABF
:1014B000C6F800E073601289B37232812F4A137844
:1014C00013F0040442D000200BE02D4B03EB0A1A6A
:1014D000C2F57F42BAF80A30FD321A44AAF80A204F
:1014E000082005B0BDE8F08F032005B0BDE8F08FFF
:1014F00004EBC505A08808340244A54292B2F9D194
:10150000D01C80B240F2FD34A04205D90920E8E7A2
:10151000002A7FF462AF0320194C94F800A0BAF1BE
:10152000000F07D1678925893D440544ADB2B5F563
:10153000806F1DD3257C3DB9678B258B3D440544C9
:10154000ADB2B5F5806F09D30720CAE743F00403B5
:1015500020461370FFF712FB2046C2E74FF0010A46
:10156000554604EB0514384460810D894C6837E713
:101570005546F6E7E0280020D0280020CC2800209F
:101580005C290020E428002084280020074A1378E2
:10159000082B09D010B4591C054C117044F82300D5
:1015A00000205DF8044B70470C2070478429002010
:1015B000642800202DE9F04FAA4E8DB03278002328
:1015C0000893079309930A930B9393070DD5A64CA1
:1015D00004F1200554F8043F07A803B19847A54239
:1015E000F8D100200DB0BDE8F08F12F00107F8D15E
:1015F00042F00102327000F0B1FB9C4BDFF88CC26C
:1016000019689B4B039701F5405A0AF1080A1D68B7
:10161000019701F58050B8460831CDF808A051F87F
:10162000083C944A9342A1F1080450D0A1F10C0364
:1016300001F6F47E02E0734500F0EE8053F8042FCB
:101640000132F8D04FEA08138B4A4FF0030408F137
:101650000108D4541FFA88F8029B01F58051994281
:1016600000F58050DBD1002F40F0F9809DF8043068
:101670000B2B09D8DFE803F0B206B20608CBBACBD1
:1016800008B7B4B7002304937C4A516F032912D8DA
:101690007B4B5B6C082B0ED8136F0B4403F00303DA
:1016A000C3EBC3039B00D0180124D45401319DF82F
:1016B000103003715167337813F0040491D143F073
:1016C000040320463370FFF759FA20468AE751F8A1
:1016D000043C6C4A934244D001329342A6D1039B0E
:1016E000A3B1654B4FEA081903EB0902DCF800309F
:1016F0000593614B4FF0020E08F1010803F809E071
:10170000059B53601FFA88F8A2F808E00222CCF883
:101710000040ACF804200B6801337BD014464FF630
:10172000FF7E0A4602E01368013313D093887345A5
:1017300006D0138823B19368AB4201D91D46012717
:10174000538803331C4402EB8302A4B29042ACF8EA
:101750000440E8D8022C5DD00823019A1A43019274
:101760007AE7454B4FEA081B03EB0B0E4FF00009DD
:10177000022203F80B90CEF80440AEF808200B6864
:1017800001331ED00B464FF6FF7A11E09C68AC4245
:1017900001D9254601275C880334224403EB8403E6
:1017A00092B29842AEF808200BD91C68013408D0D8
:1017B0009C88544502D01C88002CE7D14FF00109C9
:1017C000E9E72D4B9B44019B8BF80E9008F1010833
:1017D00043F002031FFA88F801933DE70B2001E76D
:1017E0000223049350E7032304934DE733781E4C00
:1017F00043F0020323F00103337004F1200554F891
:10180000043F07A803B19847A542F8D1E9E60123B0
:10181000049339E70423A0E7DCF80030BBB1164A93
:101820004FEA081302EB030E174ACEF80440124C9D
:10183000A2F80280022208F10109E2541FFA89F895
:10184000AEF80820019B43F00103019304E7022353
:10185000ACF804300123CCF800400393F2E7044BCA
:101860001D6003E7CC28002060280020B82100205C
:10187000E0280020DEC0ADDE5C290020E428002046
:1018800084280020FE011EF1D02800207C290020A1
:1018900060B159B130B583B00C460DF10601054673
:1018A000FFF79CF820B90A2003B030BD052070472F
:1018B000BDF80620074B686803EB021301219A89E3
:1018C0000A449A8120606B6800200C336360A9721F
:1018D00003B030BD5C29002050B110B582B00DF1CD
:1018E00006010446FFF77AF820B90A2002B010BDBD
:1018F00005207047BDF80620084B03EB02139A89B8
:1019000012B9062002B010BDA17A0029F9D0002139
:10191000013A9A810846A172E8E700BF5C290020DD
:101920001D4B1B789B0702D402231846704740B119
:10193000CB1C9BB240F2FD32934205D909231846D5
:10194000704705231846704770B4144A157895B946
:101950005689148934441C44A4B2B4F5806F0AD269
:101960002C4602EB0412334453810580418000234E
:10197000184670BC7047147C54B9568B148B344491
:101980001C44A4B2B4F5806F02D201252C46E8E7CE
:101990000723184670BC7047CC2800205C29002023
:1019A000134B1B789B0702D4022318467047D0B113
:1019B0000388022B02D904231846704710B40D493E
:1019C000428801EB031359898C1A032C0DD4C2F5FC
:1019D0007F42FD320A4400215A810B4601601846BD
:1019E0005DF8044B70470523DFE70423F7E700BFEA
:1019F000CC2800205C2900200D4B1B789B0701D4CC
:101A00000220704759B110B40C884FF6FF739C4206
:101A100001D04B882BB904205DF8044B704705209A
:101A20007047022300225DF8044BFFF7BDBC00BFE6
:101A3000CC2800203AB130B40C4C2478A30704D44D
:101A4000022030BC70470520704769B10D884FF601
:101A5000FF74A54201D04B8813B9042030BC7047F5
:101A6000022330BCFFF7A0BC0520EAE7CC28002009
:101A700028B10E4A1278930703D40220704705203C
:101A800070470029FBD010B40C884FF6FF729442C7
:101A900001D04B881BB904205DF8044B7047032329
:101AA00000225DF8044BFFF77FBC00BFCC2800206C
:101AB000F8B5194A1378990701D40220F8BD4FF6FA
:101AC000FF7188421BD0154C656F032D19D814493E
:101AD000496C082915D8216F294401F00301C1EB95
:101AE000C101890066180527675401350121F0807E
:101AF0003171656713F0040405D00020F8BD04209F
:101B0000F8BD0820F8BD43F0040320461370FFF72A
:101B100035F82046F8BD00BFCC280020E42800207E
:101B200084280020F8B5164A1378990701D40220BA
:101B3000F8BD1448416F032918D8134C646C082C65
:101B400014D8046F114D0C4404F00304C4EBC40416
:101B50002E780131062700F8247041670EB101216B
:101B6000297313F0040403D00020F8BD0820F8BD49
:101B700043F0040320461370FFF700F82046F8BD39
:101B8000CC280020E428002084280020D028002031
:101B900010B50C4C82B0ADF806002078ADF80410FA
:101BA000810702D4022002B010BD3AB133B101A9BD
:101BB0000DF10600FEF782FF02B010BD052002B055
:101BC00010BD00BFCC28002000B50D4B83B0ADF890
:101BD00006001878830703D4022003B05DF804FBE5
:101BE00051B14AB1134600200A460DF10601FEF735
:101BF00065FF03B05DF804FB052003B05DF804FB4E
:101C0000CC28002000B50D4B83B0ADF80600187845
:101C1000830703D4022003B05DF804FB51B14AB13D
:101C200013460DF106000A460021FEF747FF03B0F8
:101C30005DF804FB052003B05DF804FBCC28002010
:101C400020B119B103680B60002070470520704770
:101C500029DF704728DF704770B50C4D696E042985
:101C600011D02B6E0B44032B88BF043B182202FBC0
:101C7000035406464B1C204600216B66FDF768FBAB
:101C80003460012070BD002070BD00BF9429002089
:101C900070B5304C636E84B07BB1266E7500AB19A5
:101CA00004EBC3031A7A012A09D0022A26D19889A3
:101CB000FFF7D0FF112818D000BB04B070BDA819E1
:101CC0009A8ADB8A04EBC000D21AC1680069B2F5B7
:101CD000806F4FEA8303B4BF92B24FF4806219441D
:101CE0001844FFF7B5FF1128E6D11B4A137823F0FB
:101CF000020343F00403137004B070BD1022684661
:101D00000021FDF725FBAB1904EBC3031A7A012A66
:101D100017D0022A09D19A89DB89ADF80A20D21A94
:101D20000123ADF808208DF800303544ED0062192C
:101D300063595268019268469B680921984704B02C
:101D400070BD1A699B8A029200218DF80010ADF8CF
:101D50000C30EAE794290020902900202DE9F04377
:101D60004FF010235D696B1C48D0DFF8A48098F811
:101D700000C01CF0010F3ED1234F2448C01B0009B6
:101D800035D007EB00113B4686461A681AB15A68EF
:101D90000AB10EF1FF3E10339942F6D1BEF1000FA9
:101DA00025D0002600229146F4B23B4606E0596851
:101DB00039B10132904203F110030ED019680029A5
:101DC000F5D1597B494588BFD4B202F1010288BFE1
:101DD0008946904203F11003F0D124013B190136EA
:101DE0001A7B5D60B645A5EB02353D51DAD14CF06A
:101DF000010C88F800C00020BDE8F0834FF080534C
:101E00005D692D03B1E700BFB8210020C821002083
:101E1000902900202DE9F041264D2C78E60782B06C
:101E200012D510B1244CA04203D2022002B0BDE86A
:101E3000F081224CA042F8D252B149B142EA0104E9
:101E4000A40707D00620F1E7012002B0BDE8F08129
:101E50000320EBE70468A14201D20520E6E74668CB
:101E600001EB8304A642F8D30BB90420DEE78046D9
:101E700001A81E4614460F46FFF7EEFE08B90720DC
:101E8000D4E701992B78C1F80080019A089848603E
:101E90000121D46013F0060417619682117201D0FB
:101EA0000020C3E743F002032B70FFF7F1FE20464A
:101EB000BCE700BF90290020B8210020C8210020E5
:101EC0002DE9F041244D2C78E40782B010D510B1F3
:101ED000224CA04203D2022002B0BDE8F081204C87
:101EE000A042F8D241B1C1F30B043CB10620F3E7A4
:101EF000012002B0BDE8F0810320EDE70468A142B3
:101F000001D20520E8E7466801EB0234A642F8D387
:101F10000AB90420E0E7804601A81E4614460F4691
:101F2000FFF79AFE08B90720D6E701992B78C1F888
:101F30000080019A4E600220390B148213F00604CF
:101F40009181107201D00020C6E703432B70FFF788
:101F50009FFE2046C0E700BF90290020B821002046
:101F6000C821002020B1034B5B6E03600020704746
:101F700003207047942900202DE9F047B44FB54C59
:101F80003B78256E990784B040F18180022800F0EB
:101F9000DD80032840F0D480AF4E33780133DBB2CC
:101FA000032B337040F2AF804FF0000A10225146ED
:101FB00068464FEA450886F800A0FDF7C9F908EB26
:101FC000050304EBC303E9461A7A012A00F0F08006
:101FD000022A09D19A89DB89ADF80A20D21A012395
:101FE000ADF808208DF800304544ED0062196359C2
:101FF000526801929B68484608219847626E013AF0
:102000006266002A40F00D81236E3978013321F099
:102010000201042B3970236640F08F80002525666D
:102020008C4C2346002A00F088804FEA450808EBD4
:10203000050204EBC202117A012940D0022975D0B1
:10204000102268460021FDF783F908EB050304EB35
:10205000C303E9461A7A012A00F08B80022A09D1CB
:102060009A89DB89ADF80A20D21A0123ADF808203D
:102070008DF800304544ED006219635952680192B1
:1020800048469B680921984704B0BDE8F0875A0785
:1020900039D5626E03F0FB033B70002A4DD043F04C
:1020A00002024FEA45083A7008EB050204EBC2024F
:1020B00008EB0503117A012904EBC303BED1D08AD2
:1020C00008EB050304EBC3039A8A08EB050304EB52
:1020D000C303121AD9681B69B2F5806F4FEA8000FA
:1020E000B4BF92B24FF4806201441844FFF7B0FDD0
:1020F000112820D13B7823F0020343F004033B7006
:1021000004B0BDE8F08705EB450304EBC303626E42
:1021100088E7F389B289318A01339BB2013299424F
:10212000F381B2816CD0636E3BB133469889FFF77F
:1021300091FD1128DED0002882D104B0BDE8F087DF
:1021400005EB4503626E04EBC3036BE74FEA4508FA
:1021500008EB050304EBC3063F4A337A4FF0000A4D
:10216000012B82F800A00DD0022BD2D03346626E34
:1021700058E71A699B8A029200218DF80010ADF889
:102180000C3077E7F08AB18A0B1AB3F5806FB4BFD1
:102190009BB24FF4806308EB0502184480B204EB55
:1021A000C2068142F0820BD0636E002B88D1C4E757
:1021B0001A699B8A8DF800A00292ADF80C3013E7E3
:1021C000684610220021FDF7C3F8337A012BE94657
:1021D00034D0022B09D1F289B389ADF80A309B1AA9
:1021E0000122ADF808308DF8002008EB0503DB0074
:1021F000E218E3585268019248469B680021FCE6C9
:10220000684610225146FDF7A3F8337A012BE946C0
:10221000DFD13269B38A8DF800A00292ADF80C309C
:10222000E3E7256E0135042D25663FF4F7AE4FEA4E
:10223000450808EB050304EBC303F8E63269B38AEB
:10224000ADF80C3000218DF800100292CDE700BFF0
:102250009029002094290020FC29002010B400239C
:10226000012401E0202B0AD004FA03F2024299B2C1
:1022700003F10103F6D008465DF8044B70474FF6B2
:10228000FF7108465DF8044B704700BF98B191B1EB
:1022900030B40238002402E00134202C0AD030F897
:1022A000025F9542F8D1012233B10B6802FA04F4BF
:1022B00023430B6030BC70470B6802FA04F423EA36
:1022C00004030B60F6E700BF70B49DF80C60C0B16A
:1022D000B9B1B2B10238002402E00134202C10D090
:1022E00030F8025F9D42F8D1012303FA04F401EBB8
:1022F000820246B9E4430B68234041F8043B914213
:10230000F9D170BC70470B68234341F8043B9142FC
:10231000F7D00B68234341F8043B9142F3D1F0E737
:1023200098B110B40238002302E00133202B0DD005
:1023300030F8024F9442F8D1012202FA03F30B4223
:1023400014BF104600205DF8044B70470020FAE7E8
:10235000F0B491B100252B46012606FA03F414428D
:1023600005D000EB450431F81370A7800135013327
:10237000202BF2D10560F0BC70470D460560F0BC23
:10238000704700BF054A4FF0A043105CD3F80435F6
:1023900023FA00F0C04300F00100704714AD0200C2
:1023A000044B195C4FF0A04201238B40C2F80C355E
:1023B000704700BF14AD0200044B195C4FF0A042FF
:1023C00001238B40C2F80835704700BF14AD0200EE
:1023D0004FF0A04310B44FF480204FF400344FF47A
:1023E00000214FF48012C3F80845C3F80805C3F86C
:1023F0000815C3F808255DF8044B70474FF0A0435B
:1024000010B44FF480204FF400344FF400214FF407
:102410008012C3F80C45C3F80C05C3F80C15C3F8BB
:102420000C255DF8044B7047074B4FF0A041185C3A
:10243000D1F804350122824022EA03001340C1F89A
:102440000805C1F80C35704714AD020030B44FF0E8
:10245000A04303224FF400354FF480244FF40020B2
:102460004FF48011C3F84427C3F84827C3F84C271A
:10247000C3F85027C3F80855C3F80845C3F8080542
:10248000C3F8081530BC7047054A4FF0A043105CF4
:10249000D3F8103523FA00F0C04300F00100704774
:1024A00010AD02000D2809D00E2809D00F2809D040
:1024B00010280CBF03204FF0FF30704700207047FA
:1024C0000120704702207047014B185C704700BF25
:1024D00010AD020010B51A4B1A6882B0A2B10022EA
:1024E0001A601B6800934FF080430122154C00993D
:1024F000C3F80823A368627033B10CCB0020A2603C
:102500009847A368002BF8D10F4B1A68AAB1002294
:102510001A601B6801934FF080430222094C019915
:10252000C3F8082323690122A27033B10CCB012028
:10253000226198472369002BF8D102B010BD00BF7B
:1025400000010040002A00200401004058B910B5E5
:10255000054CA36833B10CCB0020A2609847A36858
:10256000002BF8D110BD7047002A002010B582B0B2
:1025700002A80023144C00F8013DFEF791F92378DE
:1025800053B1E3689DF8070001330122E360A270B4
:10259000FEF7ACF902B010BD0C4A6360E36010684E
:1025A000A36010F0010023610AD007F053FC20B9AA
:1025B0004FF080430122C3F8182501232370E0E780
:1025C000072100F005F8F0E7002A002000E100E014
:1025D000002810B418DB00F1604303F561434901A2
:1025E000C9B283F80013C3B24009800000F1604013
:1025F00000F5614003F01F0201239340C0F88031D1
:1026000003605DF8044B7047C3B2044A03F00F0443
:1026100049012244C9B21176E6E700BFFCEC00E0B4
:1026200030B51D4C94F8545083B015B1082003B058
:1026300030BD4FF0FF33FF22072106202363636381
:10264000A363E36323646364A364E364236063605C
:10265000A360E36023616361A361E361236284F8A3
:1026600050306362A36284F85230E36284F85330DE
:1026700084F85120FFF7ACFF084B094A1D601B6826
:10268000019301984FF000430121284684F854102B
:10269000C2F8043303B030BD142A00207C6100402E
:1026A00000600040034B93F85400003018BF012035
:1026B000704700BF142A0020F0B55E4C251895F92C
:1026C0003030002B01DB0820F0BD91F803E0BEF1B3
:1026D000000F50D02368013300F0A68008260125A2
:1026E00054F8253001334CD06B1C54F8237001375B
:1026F00048D0AB1CB3423CD254F82370013741D0D0
:10270000EB1CB34235D254F8237001373AD02B1D5D
:10271000B3422ED254F82370013733D06B1DB3422D
:1027200027D254F8237001372CD0AB1DB34220D2EE
:1027300054F82370013725D0EB1DB34219D254F859
:10274000237001371ED005F10803B34211D254F8AB
:102750002370013716D005F10903B34209D254F8AA
:10276000237001370ED00A35B54202D2E36A013335
:1027700058D00420F0BD236A01332DD00C26092542
:10278000AEE72B4626185DB244F8232086F8305079
:10279000BEF1000F26D08B78A3B94A784FF0A0463F
:1027A00000F5E073920046F82320CB78F3B9083D9A
:1027B0002C44097894F8502042EA811284F8502081
:1027C0001846F0BD830003F1A043D3F8002722F0A0
:1027D0000202C3F80027E8E7082685F83060334690
:1027E00022623546234483F84800D4E7AB0003F166
:1027F000804303F5C0430978D3F8104524F44734E7
:1028000024F44074C3F8104502020904D3F81005FB
:1028100001F4403102F4F8520A430243C3F8102590
:102820000020F0BD0B23ADE7002385F83030226097
:102830001D46B0E7142A0020F0B42E4D2E1882B0A9
:1028400096F93030072B1CDD2B4493F848309B0958
:10285000032B41D0012B14BF4FF440314FF4003112
:10286000800000F1A040D0F8002722F44032C0F8E8
:102870000027D0F800370B43C0F8003702B0F0BC97
:102880007047DAB2072AF9D8980000F1804000F5C5
:10289000C04003F140029200D0F8104592B202F11C
:1028A0008042002744F0010402F5C042C0F8104500
:1028B0000197019817600029E0D096F9302055F86B
:1028C0002220002ADAD001220B4902FA03F3C1F8D0
:1028D000043302B0F0BC70474FF0A043D3F810357A
:1028E000C34013F0010F0CBF4FF400314FF44031DF
:1028F000B6E700BF142A0020006000404FF0A0435C
:10290000D3F8103523FA00F000F00100704700BF43
:102910002DE9F04F87B00023CC4A019311680129BB
:1029200000F00A821E46CA4B1A68012A00F0F6819E
:10293000C84B1A68012A00F0E381C74B1A68012AC4
:1029400000F0D081C54B1A68012A00F0BD81C44B4C
:102950001A68012A00F0AA81C24B1A68012A00F005
:102960009781C14B1A68012A00F08481BF4B1A6815
:10297000012A00F05E8116F0FF0F1AD0BC4F01252E
:102980000024A30003F180432E4203F5C0434FEA25
:1029900045050BD0D3F8100557F82420D3F81015AF
:1029A000C0F30420C1F3014102B190470134082C67
:1029B000E7D1002E02DB07B0BDE8F08F00224FF018
:1029C000FF33AB4C02920393012502AE94F95010F1
:1029D0004F1C2DD0C9B221F0C00006AB4FEAD00E7B
:1029E00003EB0E0701F0070317F80C2C05FA03F3AD
:1029F0001A421DD02218890992F9302054F8222059
:102A0000002A00F0F080032900F0F0804FEA800EE9
:102A10000EF1A04E17F814CCDEF800771CEA030381
:102A2000C7F3014940F0B880B9F1030F00F0D78136
:102A30004FF0030A4FF002094FF00108002794F904
:102A40005110481C2DD0C9B221F0C00006AB4FEA8E
:102A5000D00C03EB0C0E01F007031EF80C2C05FA4A
:102A600003F31A421DD02218890992F9302054F834
:102A70002220002A00F0CA80032900F0CA804FEA11
:102A8000800C0CF1A04C1EF814BCDCF800E71BEA2B
:102A9000030FCEF3014E40F09080BEF1030F00F023
:102AA0008A8194F952104A1C2CD0C9B221F0C0007E
:102AB00006AB4FEAD00C03EB0C0E01F007031EF837
:102AC0000C2C05FA03F31A421CD02218890992F93A
:102AD000302054F82220002A00F08F80032900F0D3
:102AE0008E804FEA800C0CF1A04C1EF814ACDCF880
:102AF00000E71AEA030FCEF3014E6AD1BEF1030FCD
:102B000000F0468194F953104B1C2CD0C9B221F02F
:102B1000C00006AB4FEAD00E03EB0E0201F0070334
:102B200012F80CCC05FA03F31CEA030F1BD004EBDC
:102B3000000C89099CF930C054F82C90B9F1000FB1
:102B40006ED003296ED04FEA800E0EF1A04E12F81F
:102B500014CCDEF800271CEA030FC2F3014211D1A6
:102B6000032A00F0F580002F3FF425AF4FF0A0437B
:102B7000019AD3F810359A423FF41DAF029A01939F
:102B8000039223E7022AEED1032900F04681B9F12E
:102B9000000FE8D0C847E6E7B9F1020F7FF448AF6D
:102BA000032900F043814FF0030A4FF0010800278A
:102BB000002A3FF444AF904741E7BEF1020F7FF493
:102BC00070AF032900F02C81002A3FF46AAF9047D0
:102BD00067E7BEF1020F95D1032900F02481002A96
:102BE00090D090478EE703297FF422AF16F80EC0ED
:102BF0004CEA030C06F80EC008E7032982D116F848
:102C00000CA04AEA030A06F80CA06AE703297FF43D
:102C100048AF16F80CB04BEA030B06F80CB02EE7E1
:102C20000329A0D116F80EC04CEA030C06F80EC01A
:102C300089E700221A601B6805934FF0A043059AAC
:102C4000D3F81035019346F0004694E60061004049
:102C500004610040086100400C61004010610040C8
:102C600014610040186100401C6100407C6100401C
:102C7000142A00206F4AD2F8042312067FF576AE9C
:102C800000221A601B680493049B46F080066DE6E0
:102C9000684AD2F8042351067FF563AE00221A6019
:102CA0001B680493049B46F040065AE6614AD2F83A
:102CB000042390067FF550AE00221A601B6804932F
:102CC000049B46F0200647E65A4AD2F80423D4066D
:102CD0007FF53DAE00221A601B680493049B46F00A
:102CE000100634E6534AD2F8042315077FF52AAEBE
:102CF00000221A601B680493049B46F0080621E634
:102D00004C4AD2F8042357077FF517AE00221A6009
:102D10001B680493049B46F004060EE6454AD2F86D
:102D2000042392077FF504AE00221A601B68049307
:102D3000049B46F00206FBE53E49D1F8046316F019
:102D400001063FF4F0AD136013680493049BEAE5B9
:102D500003297FF41CAF4FF40032DEF8003723F470
:102D60004033CEF80037DEF800371343CEF8003793
:102D7000B9F1000F01D047460CE74FF0A043019A8C
:102D8000D3F8103593427FF4F9AE07B0BDE8F08F69
:102D900003297FF424AF4FF40037DCF8003723F425
:102DA0004033CCF80037DCF800373B43CCF8003731
:102DB0004746C84613E703297FF406AF4FF40037B0
:102DC000DCF8003723F44033CCF80037DCF8003768
:102DD0003B43CCF800374746C846D146F4E60329C2
:102DE00006D0CA461F464FF002094FF00108DFE641
:102DF0004FF40037DEF8003723F44033CEF80037C5
:102E0000DEF800373B43CEF800374FF0040A4FF0AE
:102E100003094FF002080127CAE64FF440329CE74D
:102E20004FF44037CCE74FF44037B6E74FF4403724
:102E3000E0E700BF00600040F0B50479714E640126
:102E4000331987B0DD7E15B1082007B0F0BD4D7F86
:102E50001D770D686B1C0BD04FF0A0470123AB40D2
:102E6000C7F808350B6803F5E073032547F82350CE
:102E70004B685F1C06D003F5E0734FF0A0450027B8
:102E800045F82370037906EB43131B7F002B4CD0CE
:102E900003688D69C3F824550F7D4B7D05683B435E
:102EA000C5F86C3503680F684D68C3F80C75C3F836
:102EB00014550B7D012B00F09A80331905465A609A
:102EC0000B693351EAB10379097F026806EB4313BA
:102ED0001B7F002B65D1C2F81C31D2F81C712A6807
:102EE0000097009FC2F84431D2F844212B6846482D
:102EF0000192019AC3F80403286840F30730FFF7F2
:102F000067FB2B792A6806EB43131B7F002B44D009
:102F10000823C2F80035344400200123E376E0752D
:102F20002076A075A07607B0F0BD05688F69C5F85A
:102F3000247591F814E04D7D076845EA0E05C7F841
:102F40006C550568D1F800E04F68C5F81475C5F8F0
:102F50000CE50D7D012DB0D18D686F1C05D005F5F8
:102F6000E0754FF0A04747F82530CB685D1C0DD0C9
:102F700001254FF0A04705FA03F3C7F80835CB68E1
:102F800003F5E073032547F82350CB6805688F6885
:102F9000C5F80835C5F810758FE70423C2F8003569
:102FA000B9E70023C2F81031D2F810712A680297ED
:102FB000029FC2F82031D2F820712A680397039F3C
:102FC000C2F82431D2F824712A680497049FC2F809
:102FD0004431D2F844212B6805920C48059AC3F875
:102FE0000403286840F30730FFF7F2FA89E78B689B
:102FF0005D1CBAD003F5E0734FF0A045002745F8FB
:103000002370B2E76C2A0020800002001003020047
:10301000F0B502793C4B046852019918097F0029E8
:103020006CD00021C4F8001599184968B1B1017934
:1030300003EB4111097F002963D10168334CC1F8CA
:1030400008430168324E090B4CB26409203401F088
:103050001F01012505FA01F146F8241001790768DE
:1030600003EB4111D7F80C65097FD7F814554FF0E1
:10307000FF3EA9B3D7F80815D7F81045C7F80CE5F7
:10308000C7F814E50068C0F808E5C0F810E5771C3B
:1030900006D006F5E0764FF0A040022740F82670F3
:1030A0006E1C06D005F5E0754FF0A040022640F8F2
:1030B0002560651C06D004F5E0744FF0A0400225A1
:1030C00040F82450481C06D001F5E0714FF0A040B4
:1030D000022440F8214013440022DA765A60F0BD01
:1030E000D7F80815D7F81045C7F814E5C7F80CE568
:1030F0000068C0F808E5C0F810E5C8E7C4F8001596
:1031000092E70168034C9AE76C2A002084020200CF
:1031100000E100E010030200F0B50379524C5B01BE
:10312000E51887B02D7F3DB101F06045B5F1005F36
:1031300002D0102007B0F0BD23449E7D16B11120AF
:1031400007B0F0BD9A7599609E8205796D0162198C
:10315000137F13BB0168C1F81C31D1F81C610168F1
:1031600004960126049F8E600168D2F808E0C1F839
:103170001C31D1F81C310593059B968A938A5768B8
:10318000B6B201331EF806609BB29382C1F81C658B
:10319000002F2FD0002007B0F0BD03689168C3F85E
:1031A0002061D3F8207103680197019FC3F858612B
:1031B000D3F8586103680296967D029FC3F84415C0
:1031C000C3F848650368012199605368002BE1D179
:1031D000036801E0002945D1D3F82021D3F8581124
:1031E000002AF7D0002914BF0F2000202C44002310
:1031F000A3759FE7967D938A9BB29E4202F11401CC
:1032000022D9016804E0938A9BB2B3F5807F03D092
:10321000D1F81C31002BF6D0938A9BB2B3F5807F96
:10322000E9D0C1F81C71D1F81C310393039BB2F8AB
:1032300014C0938A1FFA8CFC01331EF80CC09BB299
:103240009382C1F81CC5D6E70B889BB2B3F5807F8B
:1032500008D00268D2F81C31002BFBD00123D360C8
:103260000020C3E70F20C1E76C2A00200279044B3D
:1032700003EB4213987D003018BF0120704700BF58
:103280006C2A002070B5A54C237F8EB0002B73D123
:10329000A34AD2F80413890546D4A14BD3F80423DA
:1032A000520704D5D3F80821002A40F0C9809C4B6E
:1032B000D3F81C21BAB1A28AA17D92B28A424FF002
:1032C0000002C3F81C2180F0A880D3F81C210692CC
:1032D000069AA18AA28AA06889B20132415C92B2A0
:1032E000A282C3F81C158E4BD3F84421D2B1002220
:1032F000C3F84421D3F84411A27E04910499002A12
:1033000040F08880E37D6BB10023617EE268E37565
:1033100001238DF830108DF828300B9294E80A00C4
:103320000AA898470EB070BDD2F824110029B4D075
:10333000C2F82431D2F82411A37E07914FF4017111
:103340000798C2F808130BB901235360744A02238B
:103350008DF82830D2F88034C2F88034E07DE268FD
:103360000D9300238DF83000E375237621680B92CE
:1033700063680AA898479AE7694BD3F82421002A82
:1033800040F09280D3F8101161B1C3F81021D3F846
:10339000101103910399D3F83C15E07DC9B288421E
:1033A00000F0A4805E4BD3F84421B2B10022C3F8F0
:1033B0004421D3F84401E17D0190019869B1D3F82B
:1033C0003C35E1688DF8303001230B918DF82830C1
:1033D000E27594E80A000AA89847514BD3F82021D7
:1033E000002A9FD00022C3F82021D3F82001A17D1C
:1033F00000900098002995D0D3F84C15A3688DF85B
:1034000030100B938DF82820A27594E80A000AA8C2
:10341000984787E701221A6074E7D3F81C310593B7
:10342000059B00293FF45FAFA3688DF830100B9324
:103430008DF82820A27594E80A000AA8984752E758
:10344000E27D002A6ED00022C3F80821D3F80821BB
:103450000892089AE168627ED3F818358B54637E2F
:10346000E27D0133DBB26376637E93427FF41FAF6C
:10347000237E002B6CD1A37E13B9294B01225A6005
:10348000274AE06863684FF40171C2F80813627E4E
:103490008DF83020002501220B902168E5758DF80C
:1034A00028200AA8984702E70022C3F82421D3F86D
:1034B0002411029102218DF828100299D3F880146A
:1034C000C3F880140D91D3F83C15E368E2752276B9
:1034D0008DF830100B93216863680AA89847104B49
:1034E000D3F84421002A3FF478AF5FE7217E11B37F
:1034F000D3F80062E568E17526F02006C3F80062A3
:1035000026698DF8300001238DF828302276216855
:103510000B95E66063680AA8984743E76C2A002089
:1035200000200040C3F80821D3F808110991099937
:10353000D3F8183598E7E268E17501238DF830007B
:103540008DF828300B9294E80A000AA8984729E7DA
:10355000607EE5682169E375012200238DF8300063
:10356000E160237663760B958DF8282094E80A00B5
:103570000AA898479BE600BF0220FEF755BF00BF90
:103580002DE9F0470D460646FEF78CFF03281ED8AE
:10359000012D04461FD00ED3022D1AD11C4B00EB77
:1035A00040041C44657895B11A4B1B687BB12846D2
:1035B000BDE8F04718471848FDF736F9144B174A8D
:1035C00004EB44010B44125D9D78AA42EBD0BDE8A8
:1035D000F087BDE8F0870E4F4FEA400808EB000384
:1035E000FA18FD5C53782BB9A04447440B4BBA78CA
:1035F0001A55D8E7DFF8289007484A464FF40041AB
:10360000FDF7BCF80028EFD189F80060ECE700BFB7
:10361000D02A0020042B0020B02A00200C2B0020F0
:103620008C2A002010B50078FEF73CFF03280BD849
:10363000064B00EB40001844407828B1044B1B684F
:1036400013B1BDE81040184710BD00BFD02A0020BC
:10365000042B0020B34B1B68DB0700D4704770B508
:10366000B14EB24D33782C78FBB9172C1CD8DFE85B
:1036700014F0F10014011401630076008300960039
:103680005D0039002C0039002C00A300A800A80020
:10369000A800A800A800CE00DE0001014600180026
:1036A0001800FEF7ABFE2C7070BDA14B1B780020FC
:1036B0003070002B00F00581FEF77EFE0120FEF742
:1036C0007BFE0320FEF778FECFE701231846337018
:1036D000FEF7AAFE00224FF480419648BDE87040F4
:1036E000FDF74CB8012318463370FEF79DFE00220B
:1036F00040F6CD418F48BDE87040FDF73FB88C4B98
:103700001B78002B00F0FE800020FEF755FE012004
:10371000FEF752FE0320FEF74FFE0020FEF740FEAC
:103720000120FEF73DFE15232B7070BD0020FEF733
:1037300037FE07232B7070BD0020FEF723FE002804
:1037400000F0D3800020FEF737FE46F266610323C7
:103750002B7000227748BDE87040FDF70FB80020BD
:10376000FEF710FE002800F0C5800020FEF724FEC2
:103770004FF400310423EBE70020FEF703FE00289E
:1037800000F0BD800020FEF717FE05232B700022FD
:1037900041F69A116748BDE87040FCF7EFBF002082
:1037A000FEF742FE06232B70002240F6CD41614811
:1037B000BDE87040FCF7E2BFFEF720FE0C232B7043
:1037C00070BD5D48FDF730F8D4F1110405467BD09B
:1037D000002879D1012C13D0C82303FB04F44FF443
:1037E000FA704FF400430021C3FB04014FF47A72D6
:1037F000002306F0E9FB2A4601464F48FCF7BEFFCE
:103800000220FEF7CDFD4A4B01221A7070BD484BD5
:103810001B78002B79D00020FEF7CEFD0120FEF7AB
:10382000CBFD0320FEF7C8FD12232B7070BD404B6B
:103830001B78002B6FD00020FEF7BEFD0120FEF7A5
:10384000BBFD0320FEF7B8FD0020FEF7A9FD132302
:103850002B7070BD364B1B78002B59D00020FEF723
:10386000ABFD0120FEF7A8FD0320FEF7A5FD002318
:103870002B7070BD2E4B1B78002B4FD00020FEF715
:103880009BFD0120FEF798FD0320FEF795FD01202A
:10389000FEF786FD14232B7070BD0020FEF772FD2D
:1038A000C8B10020FEF788FD022C4EF2666118BFF9
:1038B0004FF400312C7000221E48BDE87040FCF728
:1038C0005DBFFEF785FDD0E60220FEF775FD184BC3
:1038D00000221A7070BDFEF763FD43F2333141F6EA
:1038E0009A13022C08BF1946E4E7FEF759FD41F68A
:1038F0009A112CE7FEF754FD43F233313AE7FEF715
:103900004FFD42E7FEF764FD07E7FEF761FD8BE739
:10391000FEF75EFDABE7FEF75BFD95E7FEF758FDB2
:10392000B5E700BFDC2A0020E02A0020082B002099
:103930008D2A0020E42A0020902A0020FEF7A4BD52
:1039400038B5C44B1C6814F0010401D1204638BDC1
:10395000C14C23780546E3B9172D00F27881DFE8E2
:1039600015F00B013101310169007D009100A500C6
:103970005B003500280035002800B300BA00BA000B
:10398000BA00BA00BA00E300F6001C01420063006E
:103990006300B24B1B7800202070002B00F02781C1
:1039A000FEF70AFD0120FEF707FD0320FEF704FDE8
:1039B000D2E7012318462370FEF736FD00224FF4AC
:1039C0008041A748BDE83840FCF7D8BE012318461F
:1039D0002370FEF729FD002240F6CD41A048BDE846
:1039E0003840FCF7CBBE9D4B1B78002B00F02081AC
:1039F0000020FEF7E1FC0120FEF7DEFC0320FEF7CD
:103A0000DBFC0020FEF7CCFC0120FEF7C9FC954B47
:103A100015221A70002499E70020FEF7C1FC914B93
:103A200007221A70002491E7FEF7E8FC8D4B002472
:103A30001D708BE70020FEF7A5FC002800F0E18058
:103A40000020FEF7B9FC46F26661864B84480324E9
:103A50001C700022BDE83840FCF790BE0020FEF745
:103A600091FC002800F0DC800020FEF7A5FC4FF45C
:103A700000317C4B7A4804241C700022BDE8384099
:103A8000FCF77CBE0020FEF77DFC002800F0CD8016
:103A90000020FEF791FC734B714805241C70002236
:103AA00041F69A11BDE83840FCF768BE0020FEF7E9
:103AB000BBFC6C4B6A4806241C70002240F6CD41CA
:103AC000BDE83840FCF75ABEFEF798FC654B0C2267
:103AD0001A7000243AE76448FCF7A6FE0446D5F1C4
:103AE000110000F08780002C40F08480012814D061
:103AF000C82505FB00F54FF400434FF4FA70002190
:103B0000C3FB05014FF47A72002306F05DFA2246EA
:103B100001465548FCF732FE04460220FEF740FC01
:103B20004E4B01221A7011E74C4B1B78002B00F012
:103B300082800020FEF740FC0120FEF73DFC0320C0
:103B4000FEF73AFC474B12221A700024FEE6434B64
:103B50001B78002B75D00020FEF72EFC0120FEF70D
:103B60002BFC0320FEF728FC0020FEF719FC3D4B40
:103B700013221A700024E9E6384B1B78002B5DD025
:103B80000020FEF719FC0120FEF716FC0320FEF7CB
:103B900013FC344B00241C70D8E6304B1B78002BF0
:103BA00052D00020FEF708FC0120FEF705FC0320A0
:103BB000FEF702FC0120FEF7F3FB2A4B14221A70D9
:103BC0000024C3E60020FEF7DDFBF8B10020FEF77D
:103BD000F3FB022D4EF2666118BF4FF40031214B0A
:103BE0001F481D700022BDE83840FCF7C7BDFEF736
:103BF000EFFBB1E60220FEF7DFFB184B00221A7044
:103C0000A4E6FEF7CDFB41F69A111EE7FEF7C8FBCE
:103C100043F2333141F69A13022D08BF1946DEE70D
:103C2000FEF7BEFB43F2333123E7FEF7B9FB32E781
:103C3000FEF7CEFBE5E6FEF7CBFB83E7FEF7C8FB1E
:103C4000A7E7FEF7C5FB8FE7FEF7C2FBB2E700244C
:103C50007CE600BFDC2A0020E02A00208D2A00201C
:103C6000E42A0020082B0020902A0020F0B5204AEA
:103C7000204B1060044610F0020083B0196013D08E
:103C80001D4B1E480E210F2710261125197040F2DA
:103C900066620421DF709E715D72FCF77DF8A0B151
:103CA000E3071DD403B0F0BDE20719D4144A154848
:103CB0000021FCF751FD0028F4D1134A13480121DB
:103CC00003B0BDE8F040FCF747BDFCF7BFF80028A3
:103CD000E6D101460E4A0F48FCF73EFDE10703D549
:103CE0000190FEF7B3FB01980028DFD003B0F0BDD0
:103CF000DC2A0020042B0020D02A002018AD02006E
:103D00005536020040AD02007935020038AD0200A0
:103D1000253602003CAD0200032801D90720704778
:103D2000012A12D0012917D008D30229F6D10D4B50
:103D300000EB4000034400205A707047094B00EB31
:103D40004000034400209A707047012901D00022EE
:103D5000E8E700F10E02D2B200EB40030149002077
:103D6000CA547047D02A002008B5FEF7ADFB80008A
:103D700000F1A0430020D3F8002722F44032C3F81A
:103D80000027D3F8002742F44032C3F8002708BDCB
:103D900008B50020FFF7E8FF10B1062800D008BDE5
:103DA0000120FFF7E1FF0028F9D0062808BF002016
:103DB00008BD00BF10B50388102B08D0112B05D10A
:103DC000264B18680138186038B110BD10BD234C5F
:103DD000216881B10131216010BD01220221FFF76C
:103DE0009BFF48B3072827D01D4B1B68002BECD046
:103DF000BDE81040184701220846FFF78DFF48B183
:103E0000072807D0164B1B6803B19847216801317A
:103E1000216010BD072202210120FFF77DFF08B1BC
:103E20000728EFD1042202210020FFF775FF0028A8
:103E3000ECD00728E6D1E9E7072202210120FFF7AD
:103E40006BFF08B10728CFD1002108460A22FFF7EF
:103E500063FF0028B9D00728C6D110BD142B00205D
:103E6000102B0020194B10B5186031B101200C4601
:103E7000FFF764FD30B102232370154B186848B179
:103E8000002010BDFFF75AFDE8B9114B20701868EB
:103E90000028F5D101220221FFF73EFF08B10728D3
:103EA000EFD1072202210120FFF736FF08B10728D2
:103EB000E7D1002108460A22FFF72EFF0028DFD0B5
:103EC0000728DED1DCE70B232370D6E7102B002078
:103ED000142B002076DF70477ADF70477CDF704755
:103EE000A8DF704769DF704766DF704732DF7047D1
:103EF0003EDF7047FBF7C0BF10B50446FEF73CF845
:103F00002046BDE8104001F0B3B900BF10B504462B
:103F100084B001F03FFB204604F094FB204601F002
:103F2000DDFA2046FFF746FF2388112B41D017D931
:103F3000512B27D0562B0AD03B2B08D0204601F01E
:103F400037F92146234802F0F7FB04B010BD1321D6
:103F5000A088FFF7BFFF0028F0D0FBF78DFFEDE74B
:103F6000012B30D0102BE9D103201B49FBF760FC5B
:103F70000720FFF7E5FC08B1FBF77EFF174BA2888F
:103F80001A80DBE7A379002BD8D0A27B043A022A5F
:103F9000D4D8022B18BF01234FF4C1726946A08800
:103FA0008DF80030ADF80420FFF79AFF0028C5D047
:103FB000D3E703200A49FBF73BFC0020FFF7C0FCD6
:103FC0000028BBD0C9E70021A088FFF78DFF00289B
:103FD000B4D0C2E7682B002064AD0200302000207E
:103FE00048AD020008B5037803B108BD054B3B217D
:103FF0001888FFF76FFF0028F7D0BDE80840FBF7EF
:104000003BBF00BF30200020072808B51CD00A287D
:104010000ED0042800D008BD144B13211888FFF7D8
:1040200059FF30F00803F6D0BDE80840FBF724BF85
:104030000020FFF785FCB0B9FFF7AAFE80B9FFF7B3
:1040400055FF0028F0D108BD084B1A884FF6FF73C2
:104050009A42E0D101F03CF930F00803DBD0E3E70D
:10406000FBF70AFFEBE7FBF707FFE5E7302000204F
:1040700010B5037884B004460E2B0FD8DFE803F0A8
:10408000220E270E3315100E1E0E1008100E3B00C8
:10409000032001F06DF808B1FBF7EEFE04B010BD8F
:1040A00080680028F8D104B010BDFDF73BFD0E2854
:1040B0000346F3D033F00803F0D0EDE700690028A1
:1040C000ECD0E9E70D490320FBF7B2FBE6E74088B7
:1040D00001F0F4FA227A638809490092024603202B
:1040E000FBF7C2FCDAE704A9002301F8043D40888D
:1040F00004F028FBD2E704F027FBCFE7ECAD020089
:1041000020AE020008B548B1032806D10D49FBF7DF
:104110008FFB0220FFF714FC50B908BDFFF710FC1D
:1041200050B9FFF735FE50B9FFF7E0FE0028F4D094
:10413000BDE80840FBF7A0BEFBF79EFEF1E7FBF7EA
:104140009BFEF1E7CCAD020080B500209AB0FBF7F2
:1041500053FB08B1FBF790FEFCF73CFA08B1FBF704
:104160008BFE92490320FFF781FD08B1FBF784FE27
:104170000BA90020FFF776FE08B1FBF77DFE8C4B04
:104180008C491A689DF82C501AA8002340F8602D1D
:10419000502205F065FE08B1FBF76EFE1AAC002355
:1041A00044F85C3D204605F0D1FE08B1FBF764FE03
:1041B0000C2200210BA8FBF7CBF80023039A8DF803
:1041C0002C300BA90120FFF78DFE08B1FBF754FE40
:1041D0000C2200210BA8FBF7BBF8012100238DF86E
:1041E0002C10039A8DF82D300BA940208DF82E301D
:1041F000FFF778FE08B1FBF73FFE204605F0B0FE62
:1042000008B1FBF739FE6C4805F074FE08B1FBF706
:1042100033FE6A4805F078FE08B1FBF72DFE9DF8E5
:104220000C306748012262F3030362F307138DF831
:104230000C3006F0BFF8624982B22046FFF74EFE0E
:1042400008B1FBF719FE082200210BA8FBF780F844
:104250005C4B0B930BA84FF0C8730C93FFF73CFE1D
:1042600008B1FBF709FE0021574802F049FA08B1EE
:10427000FBF702FE3C2200210BA8FBF769F80222A3
:1042800006200126514B8DF82C20002120228DF88C
:104290002F00204610938DF82E60ADF83C60FBF7A0
:1042A00057F8002122464FF49677B4240091484BEA
:1042B0008DF80F600BA80797089400F097FE08B1DF
:1042C000FBF7DAFD1C2200210BA8FBF741F84FF4A5
:1042D000203700234FF4702603243E493E4A0B93B7
:1042E0000BA8ADF83A308DF83C300C970D968DF850
:1042F00038401091119201F0B7F808B1FBF7BCFDFE
:1043000004F0B2F908B1FBF7B7FD052200210BA8B4
:10431000FBF71EF89DF82C309DF82F109DF83020EB
:1043200043F00103032003F0F10360F306136FF37E
:10433000C71341F0030142F00302072610240BA823
:104340008DF82C308DF82F108DF830208DF82D60E1
:104350008DF82E4004F0ECF908B1FBF78DFD1F48F5
:1043600004F0CAF908B1FBF787FD1D490320FBF7EC
:104370005FFA022D11D11B490320FBF759FA04F013
:10438000EBF938B9FBF7DEFB0028FBD1FFF7B0FDF6
:104390000028F7D0FBF770FDF4E7032000F0E8FEFB
:1043A0000028EFD0FBF768FDECE700BF09400200F2
:1043B00044AD0200182B00200D3F0200F93E020020
:1043C0007CAD02005000A000682B00202C200020B3
:1043D00005410200E53F0200F53E02007140020087
:1043E0008CAD0200B4AD02006DDF704772DF704724
:1043F00079DF70477DDF704764DF70472DE9F04F4C
:1044000085B00488DDF83880BDF83CA0B8F80050CD
:104410000195002C57D09946002317468B46054638
:104420001C4603E02A880134A24228DD6A6852F85B
:104430002400039000220DF10B0103A8FFF7DCFF1D
:10444000064630BB9DF80B20BA42EBD12BB3B8F82F
:104450000020D31953451BDC4A440DF10B0103A87E
:104460000123FFF7C9FF98BBB8F800109DF80B2097
:104470000A44A8F800202A880134A242D6DC13B3EB
:10448000B8F80030019A013B9B1A9BB2FF2B17D959
:104490000C26304605B0BDE8F08FB8F800305A1C45
:1044A0003B440233534592B2F2DCA8F8002009F8ED
:1044B00002B0B8F80020013292B2A8F80020CBE791
:1044C00009F80230E5E70026304605B0BDE8F08F78
:1044D0000646304605B0BDE8F08F00BF2DE9F04735
:1044E00000231788138090F82D3084B014460546B9
:1044F0000E46002B49D1AA78002A70D1EA78002A0A
:104500002ED16A68A2B1D91CB94225D8022192F9EC
:104510000020F154238801339BB20A212380F154F7
:10452000238801339BB22380F254238801332380F4
:104530002B89002B40F02A812B8A002B40F03F81F1
:104540002B8B002B40F054812A6A002A00F0A780B0
:1045500021888B1DBB4262D90C2004B0BDE8F087D6
:10456000D91CB942F8D80221F154238801339BB2F7
:1045700001212380F15423880B449BB22380F25401
:1045800023880B449BB22380BBE7082FE4D902A801
:10459000FFF72AFF0028E0D113880822CA54238895
:1045A00001339BB21B222380CA542088013080B281
:1045B0002080062208440DF1090105F0BCFE238885
:1045C0009DF8082006339BB212F0FE0218BF0122AC
:1045D0002380F254238801339BB223808BE704337A
:1045E000BB42B9D802A8FFF703FF0028B5D1238842
:1045F000BDF808200321F154238801339BB219210F
:104600002380F154238801339BB2F1182380F254A4
:10461000120A4A70238802339BB223806EE7138804
:10462000052B40F2AF806FF4486803EB080080B2BE
:104630004FF27D3E704540F2A5805088052840F23B
:10464000A1806FF4486C84441FFA8CFCF44540F25E
:1046500099804FF6FF7E734504D0704502D08342A7
:1046600000F2908005237354238801339BB21221FA
:104670002380F154238801339BB223801188F154A5
:104680003344090A5970238802339BB2238052882D
:10469000F2543344120A5A70238802332380D5F827
:1046A0002480B8F1000F30D0B8F8041020888A1C9C
:1046B000831C1344BB423FF64FAFFE2A3FF64CAF7C
:1046C00003313154238801339BB2FF222380F254FB
:1046D000238801339BB22380B8F80020F25433447E
:1046E000120A5A702088023080B22080B8F8042064
:1046F0005AB1D8F80810002944D0304405F01BFE08
:10470000B8F8042023881344238095F82C30002B1C
:1047100040F08780287800283FF41FAF2B88012BBA
:1047200030D023889A1CBA423FF616AF012805D133
:104730006978023119448F42FFF40EAF023FFB1A31
:1047400004A99BB221F8083DB018FFF753FE0028DA
:104750007FF403AF2A78022A00F0AF80012A00F02C
:10476000B4800821FE2B3FF6F7AE22885D1CB554BD
:104770002288013292B22280B1542288013213443D
:104780002380EAE6072004B0BDE8F08705F10808B9
:1047900002228DE89000404611463346FFF72EFE78
:1047A00000287FF4DAAE8DE89000404633461022B0
:1047B0000621FFF723FE00283FF4BEAECDE605F14B
:1047C00010088DE890004046334602220321FFF78F
:1047D00015FE00287FF4C1AE8DE8900040463346B8
:1047E00010220721FFF70AFE00283FF4A9AEB4E625
:1047F00005F118088DE89000404633460222142146
:10480000FFF7FCFD00287FF4A8AE8DE8900040463D
:10481000334610221521FFF7F1FD00283FF494AE36
:104820009BE6D5F82880B8F1000FABD0B8F804208B
:104830000232FE2A3FF690AE23884FF000094FF077
:10484000160A0132F254238801339BB2238006F802
:1048500003A0238801339BB22380B8F80020F254D0
:104860003344120A5A70238802339BB22380B8F86B
:104870000410F0180A4661B1D8F808301946002B28
:1048800080D005F058FDB8F80420238813449BB26B
:10489000238009F1010995F82C205FFA89F94A452E
:1048A00009EB49087FF636AFAA6A02EB8808B8F828
:1048B00004200232FE2AC4D94EE6BDF808209342F5
:1048C000FFF44FAF134609214CE76A789342FFF497
:1048D00048AF1346082145E72DE9F04395B01F2363
:1048E0000D46ADF80E300446002800F08480C278F2
:1048F00053077CD590F82D300021ADF80C10002B1B
:1049000040F0DB8183780CAF002B40F01782194612
:10491000032014AE31445F1C023316FA87F74FF0C0
:10492000020E16FA83F601F840EC83B2012107F873
:10493000401CADF80C3006F8402C6668002E00F0E4
:104940008C80D81C1F2874D90C2015B0BDE8F083CA
:10495000A76A002F4BD0BA880232FE2AF4D8BDF8DD
:104960000C304FF0000804AE4FF016091AE005F0C5
:10497000E2FCBDF80C30BA8894F82C1013449BB2BA
:10498000ADF80C3008F101085FFA88F8884508EBAB
:10499000480280F0F080A76A07EB8207BA880232EB
:1049A000FE2AD1D80DF1500E9E44581C01320DF153
:1049B000500C0EF8402C1CFA80F09A1C92B200F8B1
:1049C000409CADF80C203888B0543244000A507036
:1049D0000433B7F804E09BB27246F018ADF80C301F
:1049E000BEF1000FCED0BB681946002BBFD1072007
:1049F00015B0BDE8F083ADF80C00ADB1EB78002B3D
:104A0000F5D128460CA90DF10E02FFF767FD00282D
:104A1000EED19DF80E300CAA20469DF80C10FFF741
:104A2000E5FC15B0BDE8F0832B46ADF80E502A46E4
:104A3000F2E714AF591C9A1C17FA81F13B4417FA9C
:104A400082F296F90060ADF80C0002270A2003F804
:104A5000407C01F8400C02F8406C2389002B40F0A8
:104A60008F80238A002B40F0AB80238B002B40F0FB
:104A7000C780226A002A42D0BDF80C30991D1F2938
:104A80003FF662AF10880528B1D96FF4486C00EB8F
:104A90000C06B6B24FF27D37BE42A8D95688052E15
:104AA000A5D96FF4486EB6441FFA8EFEBE459ED956
:104AB0004FF6FF77B84203D0BE4201D0B04296D83D
:104AC00014A8C7185E1C10FA86F64FF0050E981C45
